{
  "address": "0x630edd852fF47E74a308Ffff7aFA20003dDa79A2",
  "abi": [
    {
      "inputs": [
        {
          "internalType": "address",
          "name": "exampleExternalContractAddress",
          "type": "address"
        }
      ],
      "stateMutability": "nonpayable",
      "type": "constructor"
    },
    {
      "anonymous": false,
      "inputs": [
        {
          "indexed": true,
          "internalType": "address",
          "name": "staker",
          "type": "address"
        },
        {
          "indexed": false,
          "internalType": "uint256",
          "name": "amount",
          "type": "uint256"
        }
      ],
      "name": "Stake",
      "type": "event"
    },
    {
      "inputs": [
        {
          "internalType": "address",
          "name": "",
          "type": "address"
        }
      ],
      "name": "balances",
      "outputs": [
        {
          "internalType": "uint256",
          "name": "",
          "type": "uint256"
        }
      ],
      "stateMutability": "view",
      "type": "function"
    },
    {
      "inputs": [],
      "name": "deadline",
      "outputs": [
        {
          "internalType": "uint256",
          "name": "",
          "type": "uint256"
        }
      ],
      "stateMutability": "view",
      "type": "function"
    },
    {
      "inputs": [],
      "name": "exampleExternalContract",
      "outputs": [
        {
          "internalType": "contract ExampleExternalContract",
          "name": "",
          "type": "address"
        }
      ],
      "stateMutability": "view",
      "type": "function"
    },
    {
      "inputs": [],
      "name": "execute",
      "outputs": [],
      "stateMutability": "nonpayable",
      "type": "function"
    },
    {
      "inputs": [],
      "name": "stake",
      "outputs": [],
      "stateMutability": "payable",
      "type": "function"
    },
    {
      "inputs": [],
      "name": "threshold",
      "outputs": [
        {
          "internalType": "uint256",
          "name": "",
          "type": "uint256"
        }
      ],
      "stateMutability": "view",
      "type": "function"
    },
    {
      "inputs": [],
      "name": "timeLeft",
      "outputs": [
        {
          "internalType": "uint256",
          "name": "",
          "type": "uint256"
        }
      ],
      "stateMutability": "view",
      "type": "function"
    },
    {
      "inputs": [],
      "name": "withdraw",
      "outputs": [],
      "stateMutability": "nonpayable",
      "type": "function"
    },
    {
      "stateMutability": "payable",
      "type": "receive"
    }
  ],
  "transactionHash": "0xf5fccec9d09be06cc8da13e713b9db179ff29f0813dad617f7c837b8a56ed744",
  "args": [
    "0xD4f1aE804C4ee5F34Ef4ac704eF2Ee07D936525B"
  ],
  "numDeployments": 1,
  "solcInputHash": "06dbdc3963d62637e8b944fc818fb7cf",
  "bytecode": "0x6080604052610011426203f480610064565b60015534801561002057600080fd5b506040516106dc3803806106dc83398101604081905261003f9161008b565b600080546001600160a01b0319166001600160a01b03929092169190911790556100bb565b8082018082111561008557634e487b7160e01b600052601160045260246000fd5b92915050565b60006020828403121561009d57600080fd5b81516001600160a01b03811681146100b457600080fd5b9392505050565b610612806100ca6000396000f3fe60806040526004361061007f5760003560e01c80633ccfd60b1161004e5780633ccfd60b1461010657806342cde4e81461011b57806361461954146101375780639f75f2271461014c57600080fd5b80631300a6d11461009357806327e235e3146100bb57806329dcb0cf146100e85780633a4b66f1146100fe57600080fd5b3661008e5761008c610184565b005b600080fd5b34801561009f57600080fd5b506100a86101df565b6040519081526020015b60405180910390f35b3480156100c757600080fd5b506100a86100d6366004610548565b60026020526000908152604090205481565b3480156100f457600080fd5b506100a860015481565b61008c610184565b34801561011257600080fd5b5061008c610203565b34801561012757600080fd5b506100a8670de0b6b3a764000081565b34801561014357600080fd5b5061008c6103d0565b34801561015857600080fd5b5060005461016c906001600160a01b031681565b6040516001600160a01b0390911681526020016100b2565b33600090815260026020526040812080543492906101a390849061058e565b909155505060405134815233907febedb8b3c678666e7f36970bc8f57abf6d8fa2e828c0da91ea5b75bf68ed101a9060200160405180910390a2565b600060015442106101f05750600090565b426001546101fe91906105a7565b905090565b6001544210156102515760405162461bcd60e51b8152602060048201526014602482015273111958591b1a5b99481b9bdd081c995858da195960621b60448201526064015b60405180910390fd5b60008054906101000a90046001600160a01b03166001600160a01b0316639d9a7fe96040518163ffffffff1660e01b8152600401602060405180830381865afa1580156102a2573d6000803e3d6000fd5b505050506040513d601f19601f820116820180604052508101906102c691906105ba565b1561033b576040805162461bcd60e51b81526020600482015260248101919091527f5374616b696e6720636f6d706c65746564207375636365737366756c6c79202d60448201527f2066756e64732073656e7420746f2065787465726e616c20636f6e74726163746064820152608401610248565b33600090815260026020526040902054806103915760405162461bcd60e51b81526020600482015260166024820152754e6f2062616c616e636520746f20776974686472617760501b6044820152606401610248565b336000818152600260205260408082208290555183156108fc0291849190818181858888f193505050501580156103cc573d6000803e3d6000fd5b5050565b6001544210156104195760405162461bcd60e51b8152602060048201526014602482015273111958591b1a5b99481b9bdd081c995858da195960621b6044820152606401610248565b60008054906101000a90046001600160a01b03166001600160a01b0316639d9a7fe96040518163ffffffff1660e01b8152600401602060405180830381865afa15801561046a573d6000803e3d6000fd5b505050506040513d601f19601f8201168201806040525081019061048e91906105ba565b156104cf5760405162461bcd60e51b8152602060048201526011602482015270105b1c9958591e4818dbdb5c1b195d1959607a1b6044820152606401610248565b670de0b6b3a764000047106105465760008054906101000a90046001600160a01b03166001600160a01b031663522e1177476040518263ffffffff1660e01b81526004016000604051808303818588803b15801561052c57600080fd5b505af1158015610540573d6000803e3d6000fd5b50505050505b565b60006020828403121561055a57600080fd5b81356001600160a01b038116811461057157600080fd5b9392505050565b634e487b7160e01b600052601160045260246000fd5b808201808211156105a1576105a1610578565b92915050565b818103818111156105a1576105a1610578565b6000602082840312156105cc57600080fd5b8151801515811461057157600080fdfea2646970667358221220f42c6707083f7d73a41f7a5e7acc35d3722a820752eebc36cec396cf6413557064736f6c63430008140033",
  "devdoc": {
    "kind": "dev",
    "methods": {},
    "version": 1
  },
  "userdoc": {
    "kind": "user",
    "methods": {},
    "version": 1
  },
  "storageLayout": {
    "storage": [
      {
        "astId": 19,
        "contract": "contracts/Staker.sol:Staker",
        "label": "exampleExternalContract",
        "offset": 0,
        "slot": "0",
        "type": "t_contract(ExampleExternalContract)12"
      },
      {
        "astId": 28,
        "contract": "contracts/Staker.sol:Staker",
        "label": "deadline",
        "offset": 0,
        "slot": "1",
        "type": "t_uint256"
      },
      {
        "astId": 44,
        "contract": "contracts/Staker.sol:Staker",
        "label": "balances",
        "offset": 0,
        "slot": "2",
        "type": "t_mapping(t_address,t_uint256)"
      }
    ],
    "types": {
      "t_address": {
        "encoding": "inplace",
        "label": "address",
        "numberOfBytes": "20"
      },
      "t_contract(ExampleExternalContract)12": {
        "encoding": "inplace",
        "label": "contract ExampleExternalContract",
        "numberOfBytes": "20"
      },
      "t_mapping(t_address,t_uint256)": {
        "encoding": "mapping",
        "key": "t_address",
        "label": "mapping(address => uint256)",
        "numberOfBytes": "32",
        "value": "t_uint256"
      },
      "t_uint256": {
        "encoding": "inplace",
        "label": "uint256",
        "numberOfBytes": "32"
      }
    }
  }
}